:020000040000FA
:2B000000FFFF62FF2500FFFFFFFFFFFFFFFFFFFFFFFFFFFFFFFFFFFFFFFFFFFFFFFFFFFFFFFFFFFFFFFFFFFFFFFFFF76
:2B002B00601886611886611886611886611886611886010000000018866118866118866118866118866118866180E74F
:2B005600401004411004411004411004411004411004010000000010044110044110044110044110044110044180E71C
:2B008100000000000000000000000000000000000000000000000000000000000000000000000000000000000080E7ED
:2B00AC00000000000000000000000000000000000000000000000000000000000000000000000000000000000080E7C2
:2B00D700000000000000000000000000000000000000000000000000000000000000000000000000000000000080E797
:2B010200000000000000000000000000000000000000000000000000000000000000000000000000000000000080E76B
:2B012D00000000000000000000000000000000000000000000000000000000000000000000000000000000000080E740
:2B015800000000000000000000000000000000000000000000000000000000000000000000000000000000000080E715
:2B018300000000000000000000000000000000000000000000000000000000000000000000000000000000000080E7EA
:2B01AE00000000000000000000000000000000000000000000000000000000000000000000000000000000000080E7BF
:2B01D900000000000000000000000000000000000000000000000000000000000000000000000000000000000080E794
:2B020400000000000000000000000000000000000000000000000000000000000000000000000000000000000080E768
:2B022F00000000000000000000000000000000000000000000000000000000000000000000000000000000000080E73D
:2B025A00000000000000000000000000000000000000000000000000000000000000000000000000000000000080E712
:2B028500000000000000000000000000000000000000000000000000000000000000000000000000000000000080E7E7
:2B02B000000000000000000000000000000000000000000000000000000000000000000000000000000000000080E7BC
:2B02DB00000000000000000000000000000000000000000000000000000000000000000000000000000000000080E791
:2B030600000000000000000000000000000000000000000000000000000000000000000000000000000000000080E765
:2B033100000000000000000000000000000000000000000000000000000000000000000000000000000000000080E73A
:2B035C00000000000000000000000000000000000000000000000000000000000000000000000000000000000080E70F
:2B038700000000000000000000000000000000000000000000000000000000000000000000000000000000000080E7E4
:2B03B200020000000000000000000000000000000000000000000000000000000000000000000000000000000008ED29
:2B03DD00000000000000000000000000000000000000000000000000000000000000000000000000000000000080E78E
:2B040800000000000000000000000000000000000000000000000000000000000000000000000000000000000080E762
:2B043300000000000000000000000000000000000000000000000000000000000000000000000000000000000080E737
:2B045E00000000000000000000000000000000000000000000000000000000000000000000000000000000000080E70C
:2B048900020000000000000000000000000000000000000000000000000000000000000000000000000000000008ED51
:2B04B400800008800008800008800008800008800008000000000020000220000220000220000220000220000280E7BA
:2B04DF00800008800008800008800008800008800008000000000020000220000220000220000220000220000280E78F
:2B050A00000000000000000000000000000000000000000000000000000000000000000000000000000000000080E75F
:2B053500020000000000000000000000000000000000000000000000000000000000000000000000000000000008EDA4
:2B056000000000000000000000000000000000000000000000000000000000000000000000000000000000000080E709
:2B058B00000000000000000000000000000000000000000000000000000000000000000000000000000000000080E7DE
:2B05B600000000000000000000000000000000000000000000000000000000000000000000000000000000000080E7B3
:2B05E100000000000000000000000000000000000000000000000000000000000000000000000000000000000080E788
:2B060C00020000000000000000000000000000000000000000000000000000000000000000000000000000000008EDCC
:2B063700000000000000000000000000000000000000000000000000000000000000000000000000000000000080E731
:2B066200000000000000000000000000000000000000000000000000000000000000000000000000000000000080E706
:2B068D00000000000000000000000000000000000000000000000000000000000000000000000000000000000080E7DB
:2B06B800020000000000000000000000000000000000000000000000000000000000000000000000000000000008ED20
:2B06E300000000000000000000000000000000000000000000000000000000000000000000000000000000000080E785
:2B070E00000000000000000000000000000000000000000000000000000000000000000000000000000000000080E759
:2B073900000000000000000000000000000000000000000000000000000000000000000000000000000000000080E72E
:2B076400000000000000000000000000000000000000000000000000000000000000000000000000000000000080E703
:2B078F00020000000000000000000000000000000000000000000000000000000000000000000000000000000008ED48
:2B07BA00000000000000000000000000000000000000000000000000000000000000000000000000000000000080E7AD
:2B07E500000000000000000000000000000000000000000000000000000000000000000000000000000000000080E782
:2B081000000000000000000000000000000000000000000000000000000000000000000000000000000000000080E756
:2B083B00020000000000000000000000000000000000000000000000000000000000000000000000000000000008ED9B
:2B086600000000000000000000000000000000000000000000000000000000000000000000000000000000000080E700
:2B089100000000000000000000000000000000000000000000000000000000000000000000000000000000000080E7D5
:2B08BC00000000000000000000000000000000000000000000000000000000000000000000000000000000000080E7AA
:2B08E700000000000000000000000000000000000000000000000000000000000000000000000000000000000080E77F
:2B091200020000000000000000000000000000000000000000000000000000000000000000000000000000000008EDC3
:2B093D00000000000000000000000000000000000000000000000000000000000000000000000000000000000080E728
:2B096800000000000000000000000000000000000000000000000000000000000000000000000000000000000080E7FD
:2B099300000000000000000000000000000000000000000000000000000000000000000000000000000000000080E7D2
:2B09BE00020000000000000000000000000000000000000000000000000000000000000000000000000000000008ED17
:2B09E900000000000000000000000000000000000000000000000000000000000000000000000000000000000080E77C
:2B0A1400000000000000000000000000000000000000000000000000000000000000000000000000000000000080E750
:2B0A3F00000000000000000000000000000000000000000000000000000000000000000000000000000000000080E725
:2B0A6A00000000000000000000000000000000000000000000000000000000000000000000000000000000000080E7FA
:2B0A9500020000000000000000000000000000000000000000000000000000000000000000000000000000000008ED3F
:2B0AC000000000000000000000000000000000000000000000000000000000000000000000000000000000000080E7A4
:2B0AEB00000000000000000000000000000000000000000000000000000000000000000000000000000000000080E779
:2B0B1600000000000000000000000000000000000000000000000000000000000000000000000000000000000080E74D
:2B0B4100020000000000000000000000000000000000000000000000000000000000000000000000000000000008ED92
:2B0B6C00000000000000000000000000000000000000000000000000000000000000000000000000000000000080E7F7
:2B0B9700000000000000000000000000000000000000000000000000000000000000000000000000000000000080E7CC
:2B0BC200000000000000000000000000000000000000000000000000000000000000000000000000000000000080E7A1
:2B0BED00000000000000000000000000000000000000000000000000000000000000000000000000000000000080E776
:2B0C1800020000000000000000000000000000000000000000000000000000000000000000000000000000000008EDBA
:2B0C4300000000000000000000000000000000000000000000000000000000000000000000000000000000000080E71F
:2B0C6E00000000000000000000000000000000000000000000000000000000000000000000000000000000000080E7F4
:2B0C9900000000000000000000000000000000000000000000000000000000000000000000000000000000000080E7C9
:2B0CC400020000000000000000000000000000000000000000000000000000000000000000000000000000000008ED0E
:2B0CEF00000000000000000000000000000000000000000000000000000000000000000000000000000000000080E773
:2B0D1A00000000000000000000000000000000000000000000000000000000000000000000000000000000000080E747
:2B0D4500000000000000000000000000000000000000000000000000000000000000000000000000000000000080E71C
:2B0D7000000000000000000000000000000000000000000000000000000000000000000000000000000000000080E7F1
:2B0D9B00020000000000000000000000000000000000000000000000000000000000000000000000000000000008ED36
:2B0DC600000000000000000000000000000000000000000000000000000000000000000000000000000000000080E79B
:2B0DF100000000000000000000000000000000000000000000000000000000000000000000000000000000000080E770
:2B0E1C00000000000000000000000000000000000000000000000000000000000000000000000000000000000080E744
:2B0E4700020000000000000000000000000000000000000000000000000000000000000000000000000000000008ED89
:2B0E7200000000000000000000000000000000000000000000000000000000000000000000000000000000000080E7EE
:2B0E9D00000000000000000000000000000000000000000000000000000000000000000000000000000000000080E7C3
:2B0EC800000000000000000000000000000000000000000000000000000000000000000000000000000000000080E798
:2B0EF300000000000000000000000000000000000000000000000000000000000000000000000000000000000080E76D
:2B0F1E00020000000000000000000000000000000000000000000000000000000000000000000000000000000008EDB1
:2B0F4900000000000000000000000000000000000000000000000000000000000000000000000000000000000080E716
:2B0F7400000000000000000000000000000000000000000000000000000000000000000000000000000000000080E7EB
:2B0F9F00000000000000000000000000000000000000000000000000000000000000000000000000000000000080E7C0
:2B0FCA00000000000000000000000000000000000000000000000000000000000000000000000000000000000080E795
:2B0FF500000000000000000000000000000000000000000000000000000000000000000000000000000000000080E76A
:2B102000800008800008800008800008800008800008000000000020000220000220000220000220000220000280E742
:2B104B00800008800008800008800008800008800008000000000020000220000220000220000220000220000280E717
:2B107600000000000000000000000000000000000000000000000000000000000000000000000000000000000080E7E8
:2B10A100000000000000000000000000000000000000000000000000000000000000000000000000000000000080E7BD
:2B10CC00000000000000000000000000000000000000000000000000000000000000000000000000000000000080E792
:2B10F700000000000000000000000000000000000000000000000000000000000000000000000000000000000080E767
:2B112200000000000000000000000000000000000000000000000000000000000000000000000000000000000080E73B
:2B114D00000000000000000000000000000000000000000000000000000000000000000000000000000000000080E710
:2B117800000000000000000000000000000000000000000000000000000000000000000000000000000000000080E7E5
:2B11A300000000000000000000000000000000000000000000000000000000000000000000000000000000000080E7BA
:2B11CE00000000000000000000000000000000000000000000000000000000000000000000000000000000000080E78F
:2B11F900000000000000000000000000000000000000000000000000000000000000000000000000000000000080E764
:2B122400000000000000000000000000000000000000000000000000000000000000000000000000000000000080E738
:2B124F00000000000000000000000000000000000000000000000000000000000000000000000000000000000080E70D
:2B127A00000000000000000000000000000000000000000000000000000000000000000000000000000000000080E7E2
:2B12A500000000000000000000000000000000000000000000000000000000000000000000000000000000000080E7B7
:2B12D000000000000000000000000000000000000000000000000000000000000000000000000000000000000080E78C
:2B12FB00000000000000000000000000000000000000000000000000000000000000000000000000000000000080E761
:2B132600000000000000000000000000000000000000000000000000000000000000000000000000000000000080E735
:2B135100000000000000000000000000000000000000000000000000000000000000000000000000000000000080E70A
:2B137C00000000000000000000000000000000000000000000000000000000000000000000000000000000000080E7DF
:2B13A700000000000000000000000000000000000000000000000000000000000000000000000000000000000080E7B4
:2B13D200020000000000000000000000000000000000000000000000000000000000000000000000000000000080E589
:2B13FD00080000000000000000000000000000000000000000000000000000000000000000000000000000000080EF4E
:2B1428000000000000000000000000000000000000000000000000000000000000000000000000000000000000C0A336
:2B145300000000000000000000000000000000000000000000000000000000000000000000000000000000000080E707
:2B147E00000000000000000000000000000000000000000000000000000000000000000000000000000000000080E7DC
:2B14A900000000000000000000000000000000000000000000000000000000000000000000000000000000000090F692
:2B14D400000000000000000000000000000000000000000000000000000000000000000000000000000000000080E786
:2B14FF00000000000000000000000000000000000000000000000000000000000000000000000000000000000080E75B
:2B152A00020000000000000000000000000000000000000000000000000000000000000000000000000000000080E52F
:2B155500000000000000000000000000000000000000000000000000000000000000000000000000000000000080E704
:2B158000000000000000000000000000000000000000000000000000000000000000000000000000000000000080E7D9
:2B15AB00000000000020000000000020000000000000000000000000000000000000000000000000000800000000E7E6
:2B15D600000000000010000000000010000000000000000000000000000000000000000000000000000400000080A3A3
:2B160100000000001002000000000000000000000000000000000000000000000000000000000080000002000000E644
:2B162C00020000000000000000000000000000000000000000000000000000000000000000000000000000000008ED9C
:2B165700000000000000000000000000000000000000000000000000000000000000000000000000000000000008EF71
:2B168200000000000000000000000000000000000000000000000000000000000000000000000000000000000090F6B7
:2B16AD000000000030020000000000000000000000000000000000000000000000000000000000C0000002000088A8EE
:2B16D800000000000000000000000000000000000000000000000000000000000000000000000000000000000008EFF0
:2B170300020000000000000000000000000000000000000000000000000000000000000000000000000000000008EDC4
:2B172E00800008800008800008800008800008800008000000000020000220000220000220000220000220000280E72D
:2B175900800008800008800008800008800008800008000000000020000220000220000220000220000220000280E702
:2B178400000000000020000000000000000000000000000000000000000000000000000000000000000C00000000818D
:2B17AF000200000000160000000000A6000000000000000000000000000000000000000000000000800100000008C701
:2B17DA00020000000018000000000000000000000000000000000000000000000000000000000000000200000000DEEA
:2B180500040000000014020000000084000000000000000000000000000000000000000000000000008100000000E9B0
:2B183000020000000010010000000080000000000000000000000000000000000000000000000000004000000000F1C9
:2B185B00020000000000000000000000000000000000000000000000000000000000000000000000000400000080A13B
:2B188600020000000000000000000000000000000000000000000000000000000000000000000000000400000008A980
:2B18B100000000000000100000000018000000000000000000000000000000000000000000000000000004000000AE32
:2B18DC0000000000004000000000003800000000000000000000000000000000000000000000000000000000000098D1
:2B19070000000000000600000000001E000000000000000000000000000000000000000000000000000000000000FE93
:2B193200020000000000000000000018000000000000000000000000000000000000000000000000000000000088F4F4
:2B195D0000000000004400000000001C020000000000000000000000000000000000000000000000000000000088B0C5
:2B198800000000000080000000000008010000000000000000000000000000000000000000000000000000000090FF1C
:2B19B300000000000038000000000018000000000000000000000000000000000000000000000000000000000008CDE4
:2B19DE00000000000018000000000018000000000000000000000000000000000000000000000000000000000008EFB7
:2B1A0900020000000018000000000018100000000000000000000000000000000000000000000000000000000008FD6B
:2B1A3400000000000038000000000038000000000000000000000000000000000000000000000000000800000000E728
:2B1A5F0000000000000600000000001E000000000000000000000000000000000000000000000000800300000080C570
:2B1A8A00000000000018000000000018000000000000000000000000000000000000000000000000000000000080E79A
:2B1AB50002000000001C02000000001C020000000000000000000000000000000000000000000000008100000008F44B
:2B1AE000020000000018010000000018000000000000000000000000000000000000000000000000004000000080E008
:2B1B0B00040000000018000000000008100000000000000000000000000000000000000000000000000000000080E219
:2B1B3600020000000018000000000000010000000000000000000000000000000000000000000000000200000000DF88
:2B1B6100020000000018000000000010000000000000000000000000000000000000000000000000000604000000CB5A
:2B1B8C00020000000030000000000038000000000000000000000000000000000000000000000000000000000088E557
:2B1BB70000000000001E00000000001E000000000000000000000000000000000000000000000000000000000080E760
:2B1BE200000000000000000000000018000000000000000000000000000000000000000000000000000000000000FEC2
:2B1C0D0000000000001402000000001C020000000000000000000000000000000000000000000000000000000000EF89
:2B1C3800020000000000010000000010000000000000000000000000000000000000000000000000000000000008FD69
:2B1C6300000000000000000000000018100000000000000000000000000000000000000000000000000000000000EE40
:2B1C8E00000000000010000000000018010000000000000000000000000000000000000000000000000000000000EE14
:2B1CB900000000000000100000000018000000000000000000000000000000000000000000000000000000000000EEEA
:2B1CE400000000000030000000000020000000000000000000000000000000000000000000000000000000000080F60F
:2B1D0F0002000000001E000000000006000000000000000000000000000000000000000000000000000000000088F407
:2B1D3A00000000000018000000000000000000000000000000000000000000000000000000000000000000000000FE68
:2B1D650000000000001C020000000014020000000000000000000000000000000000000000000000000000000000EF30
:2B1D9000000000000018010000000000010000000000000000000000000000000000000000000000000000000000FE10
:2B1DBB00020000000018000000000000000000000000000000000000000000000000000000000000000000000088F467
:2B1DE600020000000018000000000000000000000000000000000000000000000000000000000000000000000000FCBC
:2B1E1100040000000018100000000000100000000000000000000000000000000000000000000000000000000000FA70
:2B1E3C00020000000030000000000020000000000000000000000000000000000000000000000000000000000080F4B5
:2B1E6700020000000006000000000006000000000000000000000000000000000000000000000000000000000080E5DD
:2B1E9200020000000000000000000010000000000000000000000000000000000000000000000000000000000008FC0F
:2B1EBD0000000000000402000000000C020000000000000000000000000000000000000000000000000000000000EFF7
:2B1EE800000000000000010000000000010000000000000000000000000000000000000000000000000000000080E766
:2B1F1300000000000000000000000010000000000000000000000000000000000000000000000000000000000080F61D
:2B1F3E00020000000000000000000008000000000000000000000000000000000000000000000000000000000088E501
:2B1F6900000000000000100000000018100000000000000000000000000000000000000000000000000000000088F697
:2B1F9400000000000038000000000020000000000000000000000000000000000000000000000000000E0000009089A3
:2B1FBF0000000000001E000000000006000000000000000000000000000000000000000000000000800100000008EF5B
:2B1FEA00000000000008000000000008000000000000000000000000000000000000000000000000000000000008EFC5
:2B201500020000000014020000000004020000000000000000000000000000000000000000000000008500000008A154
:2B204000000000000018010000000000000000000000000000000000000000000000000000000000004000000000FB21
:2B206B00000000000018000000000000100000000000000000000000000000000000000000000000000000000000EE34
:2B209600000000000018000000000000010000000000000000000000000000000000000000000000000200000000DD27
:2B20C100020000000018100000000000000000000000000000000000000000000000000000000000000004000088A49A
:2B20EC00020000000000000000000080000000000000000000000000000000000000000000000000000000000000E562
:2B211700040000000026100000000036000000000000000000000000000000000000000000000000000000000080E2CB
:2B214200020000000040000000000058000000000000000000000000000000000000000000000000000000000000FCDC
:2B216D0002000000001C00000000003C000000000000000000000000000000000000000000000000000000000080C7A6
:2B219800020000000000000000000050000000000000000000000000000000000000000000000000000000000008B80A
:2B21C300000000000040000000000010000000000000000000000000000000000000000000000000000000000080B26F
:2B21EE00000000000090000000000018010000000000000000000000000000000000000000000000000000000080EEAF
:2B221900000000000018000000000038000000000000000000000000000000000000000000000000000000000080C505
:2B224400000000000000000000000000000000000000000000000000000000000000000000000000000000000080E708
:2B226F00000000000000000000000000000000000000000000000000000000000000000000000000000000000080E7DD
:2B229A00800008800008800008800008800008800008000000000020000220000220000220000220000220000280E7B6
:2B22C500800008800008800008800008800008800008000000000020000220000220000220000220000220000280E78B
:2B22F0000000000000220000000028020000000000000000000000000000000000000000000000C000000000008083B4
:2B231B00000000000000000000000000000000000000000000000000000000000000000000000000000000000080E730
:2B234600000000000000000000000000000000000000000000000000000000000000000000000000000000000080E705
:2B237100000000000000000000000000000000000000000000000000000000000000000000000000000000000080E7DA
:2B239C00000000000022000000000802000000000000000000000000000000000000000000000080000000000080C525
:2B23C700000000000004100000000004100000000000000000000000000000000000000000000000000104000080B688
:2B23F200000000000000000000000000000000000000000000000000000000000000000000000000000000000080E759
:2B241D00000000000000000000000000000000000000000000000000000000000000000000000000000000000080E72D
:2B244800000000000000000000000000000000000000000000000000000000000000000000000000000000000080E702
:2B247300000000000000080000000000000000000000000000000000000000000000000000000000000000000090FEA8
:2B249E00080000000000000000000000000000000000000000000000000000000000000000000000000000000080EF9C
:2B24C900000000000000000000000000000000000000000000000000000000000000000000000000000000000090F662
:2B24F400000000000000000000000000000000000000000000000000000000000000000000000000000000000080E756
:2B251F00020000000000000000000000000000000000000000000000000000000000000000000000000000000080E52A
:2B254A00000000000000000000000000000000000000000000000000000000000000000000000000000000000080E7FF
:2B257500000000000000000000000000000000000000000000000000000000000000000000000000000000000080E7D4
:2B25A000000000000000000000000008000000000000000000000000000000000000000000000000000000000000EF19
:2B25CB00000000000000000000000000000000000000000000000000000000000000000000000000000000000080E77E
:2B25F600000000000000000000000000000000000000000000000000000000000000000000000000000000000080E753
:2B262100000000000000000000000000000000000000000000000000000000000000000000000000000000000080E727
:2B264C00000000000000000000000000000000000000000000000000000000000000000000000000000000000080E7FC
:2B267700000000000000000000000000000000000000000000000000000000000000000000000000000000000080E7D1
:2B26A200000000000000000000000000000000000000000000000000000000000000000000000000000000000080E7A6
:2B26CD00000000000000000000000000000000000000000000000000000000000000000000000000000000000080E77B
:2B26F800000000000000000000000000000000000000000000000000000000000000000000000000000000000080E750
:2B272300000000000000000000000000000000000000000000000000000000000000000000000000000000000080E724
:2B274E00000000000000000000000000000000000000000000000000000000000000000000000000000000000080E7F9
:2B277900000000000000000000000000000000000000000000000000000000000000000000000000000000000080E7CE
:2B27A400000000000000000000000000000000000000000000000000000000000000000000000000000000000080E7A3
:2B27CF00000000000000000000000000000000000000000000000000000000000000000000000000000000000080E778
:2B27FA00000000000000000000000000000000000000000000000000000000000000000000000000000000000080E74D
:2B282500000000000000000000000000000000000000000000000000000000000000000000000000000000000080E721
:2B285000000000000000000000000000000000000000000000000000000000000000000000000000000000000080E7F6
:2B287B00000000000000000000000000000000000000000000000000000000000000000000000000000000000080E7CB
:2B28A600020000000000000000000000000000000000000000000000000000000000000000000000000000000008ED10
:2B28D100000000000000000000000000000000000000000000000000000000000000000000000000000000000080E775
:2B28FC00000000000000000000000000000000000000000000000000000000000000000000000000000000000080E74A
:2B292700000000000000000000000000000000000000000000000000000000000000000000000000000000000080E71E
:2B295200000000000000000000000000000000000000000000000000000000000000000000000000000000000080E7F3
:2B297D00020000000000000000000000000000000000000000000000000000000000000000000000000000000008ED38
:2B29A800800008800008800008800008800008800008000000000020000220000220000220000220000220000280E7A1
:2B29D300800008800008800008800008800008800008000000000020000220000220000220000220000220000280E776
:2B29FE00000000000000000000000000000000000000000000000000000000000000000000000000000000000080E747
:2B2A2900020000000000000000000000000000000000000000000000000000000000000000000000000000000008ED8B
:2B2A5400000000000000000000000000000000000000000000000000000000000000000000000000000000000008EF60
:2B2A7F00000000000000000000000000000000000000000000000000000000000000000000000000000000000090F6A6
:2B2AAA00000000000000000000000000000000000000000000000000000000000000000000000000000000000008EF0A
:2B2AD500000000000000000000000000000000000000000000000000000000000000000000000000000000000008EFDF
:2B2B0000020000000000000000000000000000000000000000000000000000000000000000000000000000000008EDB3
:2B2B2B00000000000000000000000000000000000000000000000000000000000000000000000000000000000080E718
:2B2B5600000000000000000000000000000000000000000000000000000000000000000000000000000000000080E7ED
:2B2B8100000000000000000000000000000000000000000000000000000000000000000000000000000000000080E7C2
:2B2BAC00020000000000000000000000000000000000000000000000000000000000000000000000000000000008ED07
:2B2BD700000000000000000000000000000000000000000000000000000000000000000000000000000000000080E76C
:2B2C0200000000000000000000000000000000000000000000000000000000000000000000000000000000000080E740
:2B2C2D00000000000000000000000000000000000000000000000000000000000000000000000000000000000080E715
:2B2C5800000000000000000000000000000000000000000000000000000000000000000000000000000000000080E7EA
:2B2C8300020000000000000000000000000000000000000000000000000000000000000000000000000000000008ED2F
:2B2CAE00000000000000000000000000000000000000000000000000000000000000000000000000000000000080E794
:2B2CD900000000000000000000000000000000000000000000000000000000000000000000000000000000000080E769
:2B2D0400000000000000000000000000000000000000000000000000000000000000000000000000000000000080E73D
:2B2D2F00020000000000000000000000000000000000000000000000000000000000000000000000000000000008ED82
:2B2D5A00000000000000000000000000000000000000000000000000000000000000000000000000000000000080E7E7
:2B2D8500000000000000000000000000000000000000000000000000000000000000000000000000000000000080E7BC
:2B2DB000000000000000000000000000000000000000000000000000000000000000000000000000000000000080E791
:2B2DDB00000000000000000000000000000000000000000000000000000000000000000000000000000000000080E766
:2B2E0600020000000000000000000000000000000000000000000000000000000000000000000000000000000008EDAA
:2B2E3100000000000000000000000000000000000000000000000000000000000000000000000000000000000080E70F
:2B2E5C00000000000000000000000000000000000000000000000000000000000000000000000000000000000080E7E4
:2B2E8700000000000000000000000000000000000000000000000000000000000000000000000000000000000080E7B9
:2B2EB200020000000000000000000000000000000000000000000000000000000000000000000000000000000008EDFE
:2B2EDD00000000000000000000000000000000000000000000000000000000000000000000000000000000000080E763
:2B2F0800000000000000000000000000000000000000000000000000000000000000000000000000000000000080E737
:2B2F3300000000000000000000000000000000000000000000000000000000000000000000000000000000000080E70C
:2B2F5E00000000000000000000000000000000000000000000000000000000000000000000000000000000000080E7E1
:2B2F8900020000000000000000000000000000000000000000000000000000000000000000000000000000000008ED26
:2B2FB400000000000000000000000000000000000000000000000000000000000000000000000000000000000080E78B
:2B2FDF00000000000000000000000000000000000000000000000000000000000000000000000000000000000080E760
:2B300A00000000000000000000000000000000000000000000000000000000000000000000000000000000000080E734
:2B303500020000000000000000000000000000000000000000000000000000000000000000000000000000000008ED79
:2B306000000000000000000000000000000000000000000000000000000000000000000000000000000000000080E7DE
:2B308B00000000000000000000000000000000000000000000000000000000000000000000000000000000000080E7B3
:2B30B600000000000000000000000000000000000000000000000000000000000000000000000000000000000080E788
:2B30E100000000000000000000000000000000000000000000000000000000000000000000000000000000000080E75D
:2B310C00020000000000000000000000000000000000000000000000000000000000000000000000000000000008EDA1
:2B313700000000000000000000000000000000000000000000000000000000000000000000000000000000000080E706
:2B316200000000000000000000000000000000000000000000000000000000000000000000000000000000000080E7DB
:2B318D00000000000000000000000000000000000000000000000000000000000000000000000000000000000080E7B0
:2B31B800020000000000000000000000000000000000000000000000000000000000000000000000000000000008EDF5
:2B31E300000000000000000000000000000000000000000000000000000000000000000000000000000000000080E75A
:2B320E00000000000000000000000000000000000000000000000000000000000000000000000000000000000080E72E
:2B323900000000000000000000000000000000000000000000000000000000000000000000000000000000000080E703
:2B326400000000000000000000000000000000000000000000000000000000000000000000000000000000000080E7D8
:2B328F00020000000000000000000000000000000000000000000000000000000000000000000000000000000008ED1D
:2B32BA00000000000000000000000000000000000000000000000000000000000000000000000000000000000080E782
:2B32E500000000000000000000000000000000000000000000000000000000000000000000000000000000000080E757
:2B331000000000000000000000000000000000000000000000000000000000000000000000000000000000000080E72B
:2B333B00020000000000000000000000000000000000000000000000000000000000000000000000000000000008ED70
:2B336600000000000000000000000000000000000000000000000000000000000000000000000000000000000080E7D5
:2B339100000000000000000000000000000000000000000000000000000000000000000000000000000000000080E7AA
:2B33BC00000000000000000000000000000000000000000000000000000000000000000000000000000000000080E77F
:2B33E700000000000000000000000000000000000000000000000000000000000000000000000000000000000080E754
:2B341200020000000000000000000000000000000000000000000000000000000000000000000000000000000008ED98
:2B343D00000000000000000000000000000000000000000000000000000000000000000000000000000000000080E7FD
:2B346800000000000000000000000000000000000000000000000000000000000000000000000000000000000080E7D2
:2B349300000000000000000000000000000000000000000000000000000000000000000000000000000000000080E7A7
:2B34BE00000000000000000000000000000000000000000000000000000000000000000000000000000000000080E77C
:2B34E900000000000000000000000000000000000000000000000000000000000000000000000000000000000080E751
:2B351400800008800008800008800008800008800008000000000020000220000220000220000220000220000280E729
:2B353F00800008800008800008800008800008800008000000000020000220000220000220000220000220000280E7FE
:2B356A00000000000000000000000000000000000000000000000000000000000000000000000000000000000080E7CF
:2B359500000000000000000000000000000000000000000000000000000000000000000000000000000000000080E7A4
:2B35C000000000000000000000000000000000000000000000000000000000000000000000000000000000000080E779
:2B35EB00000000000000000000000000000000000000000000000000000000000000000000000000000000000080E74E
:2B361600000000000000000000000000000000000000000000000000000000000000000000000000000000000080E722
:2B364100000000000000000000000000000000000000000000000000000000000000000000000000000000000080E7F7
:2B366C00000000000000000000000000000000000000000000000000000000000000000000000000000000000080E7CC
:2B369700000000000000000000000000000000000000000000000000000000000000000000000000000000000080E7A1
:2B36C200000000000000000000000000000000000000000000000000000000000000000000000000000000000080E776
:2B36ED00000000000000000000000000000000000000000000000000000000000000000000000000000000000080E74B
:2B371800000000000000000000000000000000000000000000000000000000000000000000000000000000000080E71F
:2B374300000000000000000000000000000000000000000000000000000000000000000000000000000000000080E7F4
:2B376E00000000000000000000000000000000000000000000000000000000000000000000000000000000000080E7C9
:2B379900000000000000000000000000000000000000000000000000000000000000000000000000000000000080E79E
:2B37C400000000000000000000000000000000000000000000000000000000000000000000000000000000000080E773
:2B37EF00000000000000000000000000000000000000000000000000000000000000000000000000000000000080E748
:2B381A00000000000000000000000000000000000000000000000000000000000000000000000000000000000080E71C
:2B384500000000000000000000000000000000000000000000000000000000000000000000000000000000000080E7F1
:2B387000000000000000000000000000000000000000000000000000000000000000000000000000000000000080E7C6
:2B389B00000000000000000000000000000000000000000000000000000000000000000000000000000000000080E79B
:2B38C600000000000000000000000000000000000000000000000000000000000000000000000000000000000080E770
:2B38F100000000000000000000000000000000000000000000000000000000000000000000000000000000000080E745
:2B391C00000000000000000000000000000000000000000000000000000000000000000000000000000000000080E719
:2B394700401004411004411004411004411004411004010000000010044110044110044110044110044110044180E7F2
:2B397200601886611886611886611886611886611886010000000018866118866118866118866118866118866180E7CF
:02399D00FFFF2A
:00000001FF
