:020000040000FA
:2B000000FFFF62FF2500FFFFFFFFFFFFFFFFFFFFFFFFFFFFFFFFFFFFFFFFFFFFFFFFFFFFFFFFFFFFFFFFFFFFFFFFFF76
:2B002B00601886611886611886611886611886611986010000000018866119866118866118866118866118866180E64E
:2B005600401004411004411004411004411004E1100401000000001004E110044110044110044110044110044100C57E
:2B008100000000000000000000000000000000000000000000000000000000000000000000000000000000000080E7ED
:2B00AC00000000000000000000000000000000000000000000000000000000000000000000000000000000000080E7C2
:2B00D700000000000000000000000000000000800200000000000000008000000000000000000000000000000000C537
:2B0102000000000000000000000000000000002000000000000000000020040000000000000000000000000000808589
:2B012D00000000000000000000000000000000000000000000000000000000000000000000000000000000000080E740
:2B015800000000000000000000000000000000000000000000000000000000000000000000000000000000000080E715
:2B018300080000000000000000000000000000000000000000000000000000000000000000000000000000000080EFDA
:2B01AE00000000000000000000000000000000000000000000000000000000000000000000000000000000000080E7BF
:2B01D900000000000000000000000000000000000000000000000000000000000000000000000000000000000080E794
:2B020400000000000000000000000000000000000000000000000000000000000000000000000000000000000080E768
:2B022F00000000000000000000000000000000000000000000000000000000000000000000000000000000000080E73D
:2B025A00000000000000000000000000000000000000000000000000000000000000000000000000000000000008EF82
:2B028500000000000000000000000000000000000000000000000000000000000000000000000000000000000080E7E7
:2B02B000080000000000000000000000000000000000000000000000000000000000000000000000000000000008E72C
:2B02DB00000000000000000000000000000000000000000000000000000000000000000000000000000000000080E791
:2B030600000000000000000000000000000000000000000000000000000000000000000000000000000000000080E765
:2B033100000000000000000000000000000000000000000000000080000000000000000000000000000000000000E73A
:2B035C00000000000000000000000000000000000000000000000040000000000000000000000000000000000080A313
:2B038700000000000000000000000000000000000000000000000008004000000000000000000000000000000000EB18
:2B03B200020000000000000000000000000000000000000000000000000000000000000000000000000000000008ED29
:2B03DD00000000000000000000000000000000000000000000000000100000000000000000000000000000000080F76E
:2B040800000000000000000000000000000000000000000000000000000000000000000000000000000000000080E762
:2B04330000000000000000000000000000000000000000000000000800C000000000000000000000000000000000E3F3
:2B045E00000000000000000000000000000000000000000000000000000000000000000000000000000000000080E70C
:2B048900020000000000000000000000000000000000000000000000000000000000000000000000000000000008ED51
:2B04B400800008800008800008800008800008800008000000000020000220000220000220000220000220000280E7BA
:2B04DF00800008800008800008800008800008800008000000000020000220000220000220000220000220000280E78F
:2B050A00000000000000000000000000000000000000000000000040020000000000000000000000000000000080A163
:2B053500020000000000000000000000000000000000000000000098000000000000000000000000000000000080FC85
:2B056000020000000000000000000000000000000000000000000008040000000000000000000000000000000088E1F9
:2B058B00040000000000000000000000000000000000000000000010000000000000000000000000000000000008FA2F
:2B05B600020000000000000000000000000000000000000000000048000000000000000000000000000000000088A1A7
:2B05E100020000000000000000000000000000000000000000000068400000000000000000000000000000000088C3FA
:2B060C00020000000000000000000000000000000000000000000060400000000000000000000000000000000080C3DE
:2B0637000000000000000000000000000000000000000000000000600000000000000000000000000000000000808137
:2B066200000000000000000000000000000000000000000000000000000000000000000000000000000000000080E706
:2B068D00000000000000000000000000000000000000000000000000000000000000000000000000000000000080E7DB
:2B06B800020000000000000000000000000000000000000000000000000000000000000000000000000000000008ED20
:2B06E300000000000000000000000000000000000000000000000000000000000000000000000000000000000080E785
:2B070E00000000000000000000000000000000000000000000000000000000000000000000000000000000000080E759
:2B073900000000000000000000000000000000000000000000000000000000000000000000000000000000000080E72E
:2B076400000000000000000000000000000000000000000000000000000000000000000000000000000000000080E703
:2B078F00020000000000000000000000000000000000000000000000000000000000000000000000000000000008ED48
:2B07BA00000000000000000000000000000000000000000000000000020000000000000000000000000000000080E5AD
:2B07E500000000000000000000000000000000000000000000000058000000000000000000000000000000000000BAD7
:2B081000000000000000000000000000000000000000000000000008040000000000000000000000000000000000EBC6
:2B083B00020000000000000000000000000000000000000000000010000000000000000000000000000000000008FC7C
:2B08660000000000000000000000000000000000000000000000006800000000000000000000000000000000008881F6
:2B089100000000000000000000000000000000000000000000000048400000000000000000000000000000000010FAAA
:2B08BC000000000000000000000000000000000000000000000000600000000000000000000000000000000000088920
:2B08E7000000000000000000000000000000000000000000000000E0400000000000000000000000000000000088C975
:2B091200020000000000000000000000000000000000000000000000000000000000000000000000000000000008EDC3
:2B093D00000000000000000000000000000000000000000000000018020000000000000000000000000000000000FC79
:2B096800000000000000000000000000000000000000000000000048040000000000000000000000000000000000AF69
:2B099300000000000000000000000000000000000000000000000010000000000000000000000000000000000080F6B3
:2B09BE000200000000000000000000000000000000000000000000680000000000000000000000000000000000888399
:2B09E900020000000000000000000000000000000000000000000068400000000000000000000000000000000000CB6E
:2B0A1400040000000000000000000000000000000000000000000040400000000000000000000000000000000080E7CC
:2B0A3F000200000000000000000000000000000000000000000000600000000000000000000000000000000000808327
:2B0A6A00020000000000000000000000000000000000000000000000010000000000000000000000000000000080E4FA
:2B0A9500020000000000000000000000000000000000000000000018000000000000000000000000000000000088F4A0
:2B0AC000000000000000000000000000000000000000000000000048040000000000000000000000000000000000AF10
:2B0AEB00000000000000000000000000000000000000000000000010000000000000000000000000000000000080F65A
:2B0B160000000000000000000000000000000000000000000000006800000000000000000000000000000000000089C3
:2B0B4100020000000000000000000000000000000000000000000068400000000000000000000000000000000000CB14
:2B0B6C00020000000000000000000000000000000000000000000040000000000000000000000000000000000008A96B
:2B0B97000400000000000000000000000000000000000000000000E0400000000000000000000000000000000088CDBA
:2B0BC200020000000000000000000000000000000000000000000040000000000000000000000000000000000008A915
:2B0BED00020000000000000000000000000000000000000000000018010000000000000000000000000000000088F545
:2B0C1800020000000000000000000000000000000000000000000008040000000000000000000000000000000000E9BA
:2B0C4300000000000000000000000000000000000000000000000010000000000000000000000000000000000080F600
:2B0C6E00000000000000000000000000000000000000000000000048000000000000000000000000000000000000AB68
:2B0C9900000000000000000000000000000000000000000000000068400000000000000000000000000000000000C9BF
:2B0CC4000200000000000000000000000000000000000000000000600000000000000000000000000000000000088B10
:2B0CEF000000000000000000000000000000000000000000000000E0400000000000000000000000000000000000C1F9
:2B0D1A00000000000000000000000000000000000000000000000000010000000000000000000000000000000080E647
:2B0D45000000000000000000000000000000000000000000000000D8000000000000000000000000000000000080BA71
:2B0D7000000000000000000000000000000000000000000000000008040000000000000000000000000000000000EB61
:2B0D9B00020000000000000000000000000000000000000000000010000000000000000000000000000000000008FC17
:2B0DC6000000000000000000000000000000000000000000000000680000000000000000000000000000000000008911
:2B0DF100000000000000000000000000000000000000000000000048400000000000000000000000000000000000EB64
:2B0E1C00000000000000000000000000000000000000000000000060400000000000000000000000000000000080C1CA
:2B0E47000200000000000000000000000000000000000000000000600000000000000000000000000000000000088B8B
:2B0E7200000000000000000000000000000000000000000000000040000000000000000000000000000000000008AB62
:2B0E9D00000000000000000000000000000000000000000000000098010000000000000000000000000000000090EE13
:2B0EC800000000000000000000000000000000000000000000000008040000000000000000000000000000000088E388
:2B0EF300000000000000000000000000000000000000000000000010000000000000000000000000000000000008FEBE
:2B0F1E00020000000000000000000000000000000000000000000048000000000000000000000000000000000088A135
:2B0F4900000000000000000000000000000000000000000000000068400000000000000000000000000000000000C90C
:2B0F740000000000000000000000000000000000000000000000006000000000000000000000000000000000008081F1
:2B0F9F000000000000000000000000000000000000000000000000600800000000000000000000000000000000A0AB74
:2B0FCA000000000000000000000000000000000000000000000000000000000000000000000000000000000000A0C597
:2B0FF500000000000000000000000000000000000000000000000020000000000000000000000000000000000080C56C
:2B102000800008800008800008800008800008800008000000000000000220000220000220000220000220000280C584
:2B104B00800008800008800008800008800008800008000000000020000220000220000220000220000220000280E717
:2B10760000000000000000000000000000000000000000000000000840C001000000000000000000000000000000B393
:2B10A100000000000000000000000000000000000000000000000000000000000000000000000000000000000080E7BD
:2B10CC00000000000000000000000000000000000000000000000000000001000000000000000000000000000080F781
:2B10F700000000000000000000000000000000000000000000000000000000000000000000000000000000000080E767
:2B112200000000000000000000000000000000000000000000000008404000000000000000000000000000000000AB6F
:2B114D00000000000000000000000000000000000000000000000000400000000000000000000000000000000080A710
:2B117800000000000000000000000000000000000000000000000000400000000000000000000000000000000080A7E5
:2B11A300000000000000000000000000000000000000000000000000200000000000000000000000000000000080C7BA
:2B11CE00000000000000000000000000000000000000000000000000000000000000000000000000000000000080E78F
:2B11F900180000000000000000000000000000000000000000000000000000000000000000000000000000000008F7B4
:2B122400000000000000000000000000000000000000000000000000000000000000000000000000000000000080E738
:2B124F00000000000000000000000000000000000000000000000000000000000000000000000000000000000080E70D
:2B127A00000000000000000000000000000000000000000000000000000000000000000000000000000000000080E7E2
:2B12A500100000000000000000000000000000000000000000000000000000000000000000000000000000000080F797
:2B12D000000000000000000000000000000000000000000000000000000000000000000000000000000000000008EFFC
:2B12FB00080000000000000000000000000000000000000000000000000000000000000000000000000000000080EF51
:2B132600000000000000000000000000000000000000000000000000000000000000000000000000000000000080E735
:2B135100000000000000000000000000000000000000000000000000000000000000000000000000000000000080E70A
:2B137C00000000000000000000000000000000000000000000000000000000000000000000000000000000000080E7DF
:2B13A700000000000000000000000000000000000000000000000000000000000000000000000000000000000080E7B4
:2B13D200000000000000000000000000000000000000000000000000000000000000000000000000000000000080E789
:2B13FD00000000000000000000000000000000000000000000000000000000000000000000000000000000000080E75E
:2B142800000000000000000000000000000000000000000000000000000000000000000000000000000000000080E732
:2B145300000000000000000000000000000000000000000000000000000000000000000000000000000000000080E707
:2B147E00000000000000000000000000000000000000000000000000000000000000000000000000000000000080E7DC
:2B14A900000000000000000000000000000000000000000000000000000000000000000000000000000000000080E7B1
:2B14D400000000000000000000000000000000000000000000000000000000000000000000000000000000000080E786
:2B14FF00000000000000000000000000000000000000000000000000000000000000000000000000000000000080E75B
:2B152A00000000000000000000000000000000000000000000000000000000000000000000000000000000000080E72F
:2B155500000000000000000000000000000000000000000000000000000000000000000000000000000000000080E704
:2B158000000000000000000000000000000000000000000000000000000000000000000000000000000000000080E7D9
:2B15AB00000000000000000000000000000000000000000000000000000000000000000000000000000000000080E7AE
:2B15D600000000000000000000000000000000000000000000000000000000000000000000000000000000000080E783
:2B160100000000000000000000000000000000000000000000000000000000000000000000000000000000000080E757
:2B162C00020000000000000000000000000000000000000000000000000000000000000000000000000000000008ED9C
:2B165700000000000000000000000000000000000000000000000000000000000000000000000000000000000080E701
:2B168200000000000000000000000000000000000000000000000000000000000000000000000000000000000080E7D6
:2B16AD00000000000000000000000000000000000000000000000000000000000000000000000000000000000080E7AB
:2B16D800000000000000000000000000000000000000000000000000000000000000000000000000000000000080E780
:2B170300020000000000000000000000000000000000000000000000000000000000000000000000000000000008EDC4
:2B172E00800008800008800008800008800008800008000000000020000220000220000220000220000220000280E72D
:2B175900800008800008800008800008800008800008000000000020000220000220000220000220000220000280E702
:2B178400000000000000000000000000000000000000000000000000000000000000000000000000000000000080E7D3
:2B17AF00020000000000000000000000000000000000000000000000000000000000000000000000000000000008ED18
:2B17DA00000000000000000000000000000000000000000000000000000000000000000000000000000000000080E77D
:2B180500000000000000000000000000000000000000000000000000000000000000000000000000000000000080E751
:2B183000000000000000000000000000000000000000000000000000000000000000000000000000000000000080E726
:2B185B00000000000000000000000000000000000000000000000000000000000000000000000000000000000080E7FB
:2B188600020000000000000000000000000000000000000000000000000000000000000000000000000000000008ED40
:2B18B100000000000000000000000000000000000000000000000000000000000000000000000000000000000080E7A5
:2B18DC00000000000000000000000000000000000000000000000000000000000000000000000000000000000080E77A
:2B190700000000000000000000000000000000000000000000000000000000000000000000000000000000000080E74E
:2B193200020000000000000000000000000000000000000000000000000000000000000000000000000000000008ED93
:2B195D00000000000000000000000000000000000000000000000000000000000000000000000000000000000080E7F8
:2B198800000000000000000000000000000000000000000000000000000000000000000000000000000000000080E7CD
:2B19B300000000000000000000000000000000000000000000000000000000000000000000000000000000000080E7A2
:2B19DE00000000000000000000000000000000000000000000000000000000000000000000000000000000000080E777
:2B1A0900020000000000000000000000000000000000000000000000000000000000000000000000000000000008EDBB
:2B1A3400000000000000000000000000000000000000000000000000000000000000000000000000000000000080E720
:2B1A5F00000000000000000000000000000000000000000000000000000000000000000000000000000000000080E7F5
:2B1A8A00000000000000000000000000000000000000000000000000000000000000000000000000000000000080E7CA
:2B1AB500020000000000000000000000000000000000000000000000000000000000000000000000000000000008ED0F
:2B1AE000000000000000000000000000000000000000000000000000000000000000000000000000000000000080E774
:2B1B0B00000000000000000000000000000000000000000000000000000000000000000000000000000000000080E748
:2B1B3600000000000000000000000000000000000000000000000000000000000000000000000000000000000080E71D
:2B1B6100000000000000000000000000000000000000000000000000000000000000000000000000000000000080E7F2
:2B1B8C00020000000000000000000000000000000000000000000000000000000000000000000000000000000008ED37
:2B1BB700000000000000000000000000000000000000000000000000000000000000000000000000000000000080E79C
:2B1BE200000000000000000000000000000000000000000000000000000000000000000000000000000000000080E771
:2B1C0D00000000000000000000000000000000000000000000000000000000000000000000000000000000000080E745
:2B1C3800020000000000000000000000000000000000000000000000000000000000000000000000000000000008ED8A
:2B1C6300000000000000000000000000000000000000000000000000000000000000000000000000000000000080E7EF
:2B1C8E00000000000000000000000000000000000000000000000000000000000000000000000000000000000080E7C4
:2B1CB900000000000000000000000000000000000000000000000000000000000000000000000000000000000080E799
:2B1CE400000000000000000000000000000000000000000000000000000000000000000000000000000000000080E76E
:2B1D0F00020000000000000000000000000000000000000000000000000000000000000000000000000000000008EDB2
:2B1D3A00000000000000000000000000000000000000000000000000000000000000000000000000000000000080E717
:2B1D6500000000000000000000000000000000000000000000000000000000000000000000000000000000000080E7EC
:2B1D9000000000000000000000000000000000000000000000000000000000000000000000000000000000000080E7C1
:2B1DBB00020000000000000000000000000000000000000000000000000000000000000000000000000000000008ED06
:2B1DE600000000000000000000000000000000000000000000000000000000000000000000000000000000000080E76B
:2B1E1100000000000000000000000000000000000000000000000000000000000000000000000000000000000080E73F
:2B1E3C00000000000000000000000000000000000000000000000000000000000000000000000000000000000080E714
:2B1E6700000000000000000000000000000000000000000000000000000000000000000000000000000000000080E7E9
:2B1E9200020000000000000000000000000000000000000000000000000000000000000000000000000000000008ED2E
:2B1EBD00000000000000000000000000000000000000000000000000000000000000000000000000000000000080E793
:2B1EE800000000000000000000000000000000000000000000000000000000000000000000000000000000000080E768
:2B1F1300000000000000000000000000000000000000000000000000000000000000000000000000000000000080E73C
:2B1F3E00020000000000000000000000000000000000000000000000000000000000000000000000000000000008ED81
:2B1F6900000000000000000000000000000000000000000000000000000000000000000000000000000000000080E7E6
:2B1F9400000000000000000000000000000000000000000000000000000000000000000000000000000000000080E7BB
:2B1FBF00000000000000000000000000000000000000000000000000000000000000000000000000000000000080E790
:2B1FEA00000000000000000000000000000000000000000000000000000000000000000000000000000000000080E765
:2B201500020000000000000000000000000000000000000000000000000000000000000000000000000000000008EDA9
:2B204000000000000000000000000000000000000000000000000000000000000000000000000000000000000080E70E
:2B206B00000000000000000000000000000000000000000000000000000000000000000000000000000000000080E7E3
:2B209600000000000000000000000000000000000000000000000000000000000000000000000000000000000080E7B8
:2B20C100020000000000000000000000000000000000000000000000000000000000000000000000000000000008EDFD
:2B20EC00000000000000000000000000000000000000000000000000000000000000000000000000000000000080E762
:2B211700000000000000000000000000000000000000000000000000000000000000000000000000000000000080E736
:2B214200000000000000000000000000000000000000000000000000000000000000000000000000000000000080E70B
:2B216D00000000000000000000000000000000000000000000000000000000000000000000000000000000000080E7E0
:2B219800020000000000000000000000000000000000000000000000000000000000000000000000000000000008ED25
:2B21C300000000000000000000000000000000000000000000000000000000000000000000000000000000000080E78A
:2B21EE00000000000000000000000000000000000000000000000000000000000000000000000000000000000080E75F
:2B221900000000000000000000000000000000000000000000000000000000000000000000000000000000000080E733
:2B224400000000000000000000000000000000000000000000000000000000000000000000000000000000000080E708
:2B226F00000000000000000000000000000000000000000000000000000000000000000000000000000000000080E7DD
:2B229A00800008800008800008800008800008800008000000000020000220000220000220000220000220000280E7B6
:2B22C500800008800008800008800008800008800008000000000020000220000220000220000220000220000280E78B
:2B22F000000000000000000000000000000000000000000000000000000000000000000000000000000000000080E75C
:2B231B00000000000000000000000000000000000000000000000000000000000000000000000000000000000080E730
:2B234600000000000000000000000000000000000000000000000000000000000000000000000000000000000080E705
:2B237100000000000000000000000000000000000000000000000000000000000000000000000000000000000080E7DA
:2B239C00000000000000000000000000000000000000000000000000000000000000000000000000000000000080E7AF
:2B23C700000000000000000000000000000000000000000000000000000000000000000000000000000000000080E784
:2B23F200000000000000000000000000000000000000000000000000000000000000000000000000000000000080E759
:2B241D00000000000000000000000000000000000000000000000000000000000000000000000000000000000080E72D
:2B244800000000000000000000000000000000000000000000000000000000000000000000000000000000000080E702
:2B247300000000000000000000000000000000000000000000000000000000000000000000000000000000000080E7D7
:2B249E00000000000000000000000000000000000000000000000000000000000000000000000000000000000080E7AC
:2B24C900000000000000000000000000000000000000000000000000000000000000000000000000000000000080E781
:2B24F400000000000000000000000000000000000000000000000000000000000000000000000000000000000080E756
:2B251F00000000000000000000000000000000000000000000000000000000000000000000000000000000000080E72A
:2B254A00000000000000000000000000000000000000000000000000000000000000000000000000000000000080E7FF
:2B257500000000000000000000000000000000000000000000000000000000000000000000000000000000000080E7D4
:2B25A000000000000000000000000000000000000000000000000000000000000000000000000000000000000080E7A9
:2B25CB00000000000000000000000000000000000000000000000000000000000000000000000000000000000080E77E
:2B25F600000000000000000000000000000000000000000000000000000000000000000000000000000000000080E753
:2B262100000000000000000000000000000000000000000000000000000000000000000000000000000000000080E727
:2B264C00100000000000000000000000000000000000000000000000000000000000000000000000000000000080F7DC
:2B267700000000000000000000000000000000000000000000000000000000000000000000000000000000000080E7D1
:2B26A2000000000000000000000000000000000000000000000000000000000000000000000000000000000000A0C5A8
:2B26CD00000000000000000000000000000000000000000000000000000000000000000000000000000000000080E77B
:2B26F800000000000000000000000000000000000000000000000000000000000000000000000000000000000080E750
:2B272300000000000000000000000000000000000000000000000000000000000000000000000000000000000080E724
:2B274E00000000000000000000000000000000000000000000000000000000000000000000000000000000000080E7F9
:2B277900000000000000000000000000000000000000000000000000000000000000000000000000000000000008EF3E
:2B27A4001000000000000000000000000000000000000000000000000000000000000000000000000000000000A0D585
:2B27CF00000000000000000000000000000000000000000000000000000000000000000000000000000000000080E778
:2B27FA00000000000000000000000000000000000000000000000000000000000000000000000000000000000080E74D
:2B282500000000000000000000000000000000000020000000000000000000000000000000000000000000000080C523
:2B285000000000000000000000000000000000000030000000000000000000000000000000000000000000000080D4D9
:2B287B00000000000000000000000000000000000004090000000000000000000000000000000000000000000080AEF7
:2B28A600020000000000000000000000000000000000000000000000000000000000000000000000000000000008ED10
:2B28D100020000000000000000000000000000000010000000000000000000000000000000000000000000000080F456
:2B28FC00040000000000000000000000000000000000000000000000000000000000000000000000000000000080E34A
:2B292700020000000000000000000000000000000004090000000000000000000000000000000000000000000080AC4A
:2B295200020000000000000000000000000000000000000000000000000000000000000000000000000000000080E5F3
:2B297D00020000000000000000000000000000000000000000000000000000000000000000000000000000000008ED38
:2B29A800800008800008800008800008800008800008000000000020000220000220000220000220000220000280E7A1
:2B29D300800008800008800008800008800008800008000000000020000220000220000220000220000220000280E776
:2B29FE00000000000000000000000000000000000080000000000000000000000000000000000000000000000000E747
:2B2A2900020000000000000000000000000000000026000000000000000000000000000000000000000000000008AFA3
:2B2A5400000000000000000000000000000000000012010000000000000000000000000000000000000000000008DF5D
:2B2A7F00000000000000000000000000000000000004000000000000000000000000000000000000000000000090B6E2
:2B2AAA0000000000000000000000000000000000001A000000000000000000000000000000000000000000000088D689
:2B2AD50000000000000000000000000000000000001A100000000000000000000000000000000000000000000088C65E
:2B2B0000020000000000000000000000000000000010020000000000000000000000000000000000000000000008FE90
:2B2B2B00000000000000000000000000000000000018000000000000000000000000000000000000000000000000FE69
:2B2B5600000000000000000000000000000000000000000000000000000000000000000000000000000000000080E7ED
:2B2B81000000000000000000000000000000000000B6000000000000000000000000000000000000000000000000B4BF
:2B2BAC00020000000000000000000000000000000002010000000000000000000000000000000000000000000008CC25
:2B2BD700000000000000000000000000000000000004000000000000000000000000000000000000000000000080A7A8
:2B2C020000000000000000000000000000000000001A000000000000000000000000000000000000000000000000DEAF
:2B2C2D00000000000000000000000000000000000012100000000000000000000000000000000000000000000080C614
:2B2C5800000000000000000000000000000000000018000000000000000000000000000000000000000000000000FE3B
:2B2C8300020000000000000000000000000000000018020000000000000000000000000000000000000000000088F68C
:2B2CAE00000000000000000000000000000000000090000000000000000000000000000000000000000000000000F675
:2B2CD90000000000000000000000000000000000000600000000000000000000000000000000000000000000008087C3
:2B2D0400000000000000000000000000000000000002010000000000000000000000000000000000000000000080C65B
:2B2D2F00020000000000000000000000000000000004000000000000000000000000000000000000000000000008ADBE
:2B2D5A00000000000000000000000000000000000012000000000000000000000000000000000000000000000008DE56
:2B2D850000000000000000000000000000000000001A100000000000000000000000000000000000000000000010DF0A
:2B2DB000000000000000000000000000000000000018020000000000000000000000000000000000000000000088F462
:2B2DDB00000000000000000000000000000000000018000000000000000000000000000000000000000000000088F637
:2B2E0600020000000000000000000000000000000000000000000000000000000000000000000000000000000008EDAA
:2B2E31000000000000000000000000000000000000860000000000000000000000000000000000000000000000008769
:2B2E5C00000000000000000000000000000000000012010000000000000000000000000000000000000000000080D7E1
:2B2E8700000000000000000000000000000000000004000000000000000000000000000000000000000000000080A7F5
:2B2EB20002000000000000000000000000000000001A000000000000000000000000000000000000000000000088D47D
:2B2EDD0002000000000000000000000000000000001A100000000000000000000000000000000000000000000000CCD2
:2B2F0800040000000000000000000000000000000010000000000000000000000000000000000000000000000080F218
:2B2F3300020000000000000000000000000000000018010000000000000000000000000000000000000000000000FD5B
:2B2F5E00020000000000000000000000000000000050000000000000000000000000000000000000000000000080B0C6
:2B2F89000200000000000000000000000000000000060000000000000000000000000000000000000000000000088D80
:2B2FB400000000000000000000000000000000000002010000000000000000000000000000000000000000000080C6A9
:2B2FDF00000000000000000000000000000000000004000000000000000000000000000000000000000000000080A79C
:2B300A00000000000000000000000000000000000012000000000000000000000000000000000000000000000080D633
:2B30350000000000000000000000000000000000001A100000000000000000000000000000000000000000000088C6F8
:2B306000020000000000000000000000000000000018000000000000000000000000000000000000000000000088F4AF
:2B308B00020000000000000000000000000000000018010000000000000000000000000000000000000000000010EC03
:2B30B600020000000000000000000000000000000000000000000000000000000000000000000000000000000008EDF8
:2B30E100020000000000000000000000000000000046000000000000000000000000000000000000000000000008C9AB
:2B310C00000000000000000000000000000000000012010000000000000000000000000000000000000000000008DF9E
:2B313700000000000000000000000000000000000004000000000000000000000000000000000000000000000080A742
:2B31620000000000000000000000000000000000001A000000000000000000000000000000000000000000000000DE4A
:2B318D0000000000000000000000000000000000001A100000000000000000000000000000000000000000000000CE1F
:2B31B800020000000000000000000000000000000010000000000000000000000000000000000000000000000008FCD6
:2B31E300000000000000000000000000000000000018020000000000000000000000000000000000000000000000FCAB
:2B320E00000000000000000000000000000000000050000000000000000000000000000000000000000000000080B213
:2B323900000000000000000000000000000000000026000000000000000000000000000000000000000000000080A51F
:2B326400000000000000000000000000000000000002010000000000000000000000000000000000000000000080C6F6
:2B328F00020000000000000000000000000000000004000000000000000000000000000000000000000000000008AD59
:2B32BA00000000000000000000000000000000000012000000000000000000000000000000000000000000000080D681
:2B32E50000000000000000000000000000000000001A100000000000000000000000000000000000000000000000CEC6
:2B331000000000000000000000000000000000000038000000000000000000000000000000000000000000000000DC7E
:2B333B00020000000000000000000000000000000018000000000000000000000000000000000000000000000088F4D1
:2B336600020000000000000000000000000000000000000000000000000000000000000000000000000000000080E5D5
:2B339100040000000000000000000000000000000066000000000000000000000000000000000000000000000080E542
:2B33BC00020000000000000000000000000000000012010000000000000000000000000000000000000000000080D57C
:2B33E700020000000000000000000000000000000004000000000000000000000000000000000000000000000080A590
:2B34120002000000000000000000000000000000001A000000000000000000000000000000000000000000000088D417
:2B343D0000000000000000000000000000000000001A100000000000000000000000000000000000000000000000CE6C
:2B346800000000000000000000000000000000000030000000000000000000000000000000000000000000000080D4B5
:2B349300000000000000000000000000000000000018000000000000000000000000000000000000000000000000FEF8
:2B34BE00080000000000000000000000000000000000000000000000000000000000000000000000000000000080EF6C
:2B34E900000000000000000000000000000000000008000000000000000000000000000000000000000000000000EFC1
:2B351400800008800008800008800008800008800000000000000020000220000220000220000220000220000200EFA9
:2B353F00800008800008800008800008800008800008000000000020000220000220000220000220000220000280E7FE
:2B356A0000000000000000000000000000000000F102000000000000000000000000000000000000000000000080D9EA
:2B359500000000000000000000000000000000000000000000000000000000000000000000000000000000000080E7A4
:2B35C000000000000000000000000000000000000100000000000000000000000000000000000000000000000080F669
:2B35EB00000000000000000000000000000000000000000000000000000000000000000000000000000000000080E74E
:2B361600000000000000000000000000000000009002000000000000000000000000000000000000000000000080CEA9
:2B364100000000000000000000000000000000000014100000000000000000000000000000000000000000000080A614
:2B366C00000000000000000000000000000000000000000000000000000000000000000000000000000000000080E7CC
:2B369700000000000000000000000000000000000000000000000000000000000000000000000000000000000080E7A1
:2B36C200000000000000000000000000000000000000000000000000000000000000000000000000000000000080E776
:2B36ED001200000000000000000000000000000000000000000000000000000000000000000000000000000000A0D729
:2B371800000000000000000000000000000000000000000000000000000000000000000000000000000000000080E71F
:2B374300120000000000000000000000000000000000000000000000000000000000000000000000000000000080F5D4
:2B376E00000000000000000000000000000000000000000000000000000000000000000000000000000000000080E7C9
:2B379900000000000000000000000000000000000000000000000000000000000000000000000000000000000080E79E
:2B37C400000000000000000000000000000000000000000000000000000000000000000000000000000000000080E773
:2B37EF00000000000000000000000000000000000000000000000000000000000000000000000000000000000080E748
:2B381A00000000000000000000000000000000000000000000000000000000000000000000000000000000000080E71C
:2B384500000000000000000000000000000000000000000000000000000000000000000000000000000000000080E7F1
:2B3870000000000000000000000000000000000000000000000000000000000000000000000000000000000000A0C5C8
:2B389B000000000000000000000000000000000000A0000000000008000000000000000000000000000000000080CD0D
:2B38C600000000000000000000000000000000000000020000000020400000000000000000000000000000000080876E
:2B38F100000000000000000000000000000000000000000000000000000000000000000000000000000000000080E745
:2B391C00000000000000000000000000000000000000000000000000000000000000000000000000000000000080E719
:2B394700401004411004411004411004411004411084030000000038044110044110044110044110044110044180CF60
:2B397200601886611886611886611886611886611886050000000058866118866118866118866118866118866180A7CB
:02399D00FFFF2A
:00000001FF
